{
  "contractName": "ItemManager",
  "abi": [
    {
      "anonymous": false,
      "inputs": [
        {
          "indexed": false,
          "internalType": "uint256",
          "name": "_itemIndex",
          "type": "uint256"
        },
        {
          "indexed": false,
          "internalType": "uint256",
          "name": "_step",
          "type": "uint256"
        },
        {
          "indexed": false,
          "internalType": "address",
          "name": "_itemAddress",
          "type": "address"
        }
      ],
      "name": "SupplyChainStep",
      "type": "event"
    },
    {
      "inputs": [],
      "name": "isOWner",
      "outputs": [
        {
          "internalType": "bool",
          "name": "",
          "type": "bool"
        }
      ],
      "stateMutability": "view",
      "type": "function",
      "constant": true
    },
    {
      "inputs": [
        {
          "internalType": "uint256",
          "name": "",
          "type": "uint256"
        }
      ],
      "name": "items",
      "outputs": [
        {
          "internalType": "contract Item",
          "name": "_item",
          "type": "address"
        },
        {
          "internalType": "string",
          "name": "_identifier",
          "type": "string"
        },
        {
          "internalType": "uint256",
          "name": "_itemPrice",
          "type": "uint256"
        },
        {
          "internalType": "enum ItemManager.Supplychain",
          "name": "_state",
          "type": "uint8"
        }
      ],
      "stateMutability": "view",
      "type": "function",
      "constant": true
    },
    {
      "inputs": [
        {
          "internalType": "string",
          "name": "_identifier",
          "type": "string"
        },
        {
          "internalType": "uint256",
          "name": "_itemPrice",
          "type": "uint256"
        }
      ],
      "name": "createItem",
      "outputs": [],
      "stateMutability": "nonpayable",
      "type": "function"
    },
    {
      "inputs": [
        {
          "internalType": "uint256",
          "name": "_itemIndex",
          "type": "uint256"
        }
      ],
      "name": "triggerPayment",
      "outputs": [],
      "stateMutability": "payable",
      "type": "function",
      "payable": true
    },
    {
      "inputs": [
        {
          "internalType": "uint256",
          "name": "_itemIndex",
          "type": "uint256"
        }
      ],
      "name": "triggerDelivery",
      "outputs": [],
      "stateMutability": "nonpayable",
      "type": "function"
    }
  ],
  "bytecode": "0x6080604052336000806101000a81548173ffffffffffffffffffffffffffffffffffffffff021916908373ffffffffffffffffffffffffffffffffffffffff16021790555061103f806100536000396000f3fe60806040526004361061004a5760003560e01c806320cee3561461004f578063800fb83f1461007e5780638c551742146100ac578063bfb231d21461017e578063cd31831e14610281575b600080fd5b34801561005b57600080fd5b506100646102bc565b604051808215151515815260200191505060405180910390f35b6100aa6004803603602081101561009457600080fd5b8101908080359060200190929190505050610313565b005b3480156100b857600080fd5b5061017c600480360360408110156100cf57600080fd5b81019080803590602001906401000000008111156100ec57600080fd5b8201836020820111156100fe57600080fd5b8035906020019184600183028401116401000000008311171561012057600080fd5b91908080601f016020809104026020016040519081016040528093929190818152602001838380828437600081840152601f19601f8201169050808301925050505050505091929192908035906020019092919050505061055e565b005b34801561018a57600080fd5b506101b7600480360360208110156101a157600080fd5b81019080803590602001909291905050506107e5565b604051808573ffffffffffffffffffffffffffffffffffffffff1673ffffffffffffffffffffffffffffffffffffffff1681526020018060200184815260200183600281111561020357fe5b60ff168152602001828103825285818151815260200191508051906020019080838360005b83811015610243578082015181840152602081019050610228565b50505050905090810190601f1680156102705780820380516001836020036101000a031916815260200191505b509550505050505060405180910390f35b34801561028d57600080fd5b506102ba600480360360208110156102a457600080fd5b81019080803590602001909291905050506108da565b005b60008060009054906101000a900473ffffffffffffffffffffffffffffffffffffffff1673ffffffffffffffffffffffffffffffffffffffff163373ffffffffffffffffffffffffffffffffffffffff1614905090565b3460016000838152602001908152602001600020600201541461039e576040517f08c379a000000000000000000000000000000000000000000000000000000000815260040180806020018281038252601b8152602001807f4f6e6c792066756c6c207061796d656e7473206163636570746564000000000081525060200191505060405180910390fd5b600060028111156103ab57fe5b6001600083815260200190815260200160002060030160009054906101000a900460ff1660028111156103da57fe5b1461044d576040517f08c379a000000000000000000000000000000000000000000000000000000000815260040180806020018281038252601c8152602001807f4974656d206973206675727468657220696e2074686520636861696e0000000081525060200191505060405180910390fd5b600180600083815260200190815260200160002060030160006101000a81548160ff0219169083600281111561047f57fe5b02179055507fa4035636e99f06b7651a604c1019fa4e8779fe68ef27eeb74dff2de348f6199b816001600084815260200190815260200160002060030160009054906101000a900460ff1660028111156104d557fe5b6001600085815260200190815260200160002060000160009054906101000a900473ffffffffffffffffffffffffffffffffffffffff16604051808481526020018381526020018273ffffffffffffffffffffffffffffffffffffffff1673ffffffffffffffffffffffffffffffffffffffff168152602001935050505060405180910390a150565b6105666102bc565b6105d8576040517f08c379a00000000000000000000000000000000000000000000000000000000081526004018080602001828103825260168152602001807f596f7520617265206e6f7420746865206f776e6572200000000000000000000081525060200191505060405180910390fd5b600030826002546040516105eb90610a9b565b808473ffffffffffffffffffffffffffffffffffffffff1673ffffffffffffffffffffffffffffffffffffffff1681526020018381526020018281526020019350505050604051809103906000f08015801561064b573d6000803e3d6000fd5b5090508060016000600254815260200190815260200160002060000160006101000a81548173ffffffffffffffffffffffffffffffffffffffff021916908373ffffffffffffffffffffffffffffffffffffffff1602179055508260016000600254815260200190815260200160002060010190805190602001906106d1929190610aa8565b508160016000600254815260200190815260200160002060020181905550600060016000600254815260200190815260200160002060030160006101000a81548160ff0219169083600281111561072457fe5b02179055507fa4035636e99f06b7651a604c1019fa4e8779fe68ef27eeb74dff2de348f6199b60025460016000600254815260200190815260200160002060030160009054906101000a900460ff16600281111561077e57fe5b83604051808481526020018381526020018273ffffffffffffffffffffffffffffffffffffffff1673ffffffffffffffffffffffffffffffffffffffff168152602001935050505060405180910390a1600260008154809291906001019190505550505050565b60016020528060005260406000206000915090508060000160009054906101000a900473ffffffffffffffffffffffffffffffffffffffff1690806001018054600181600116156101000203166002900480601f0160208091040260200160405190810160405280929190818152602001828054600181600116156101000203166002900480156108b75780601f1061088c576101008083540402835291602001916108b7565b820191906000526020600020905b81548152906001019060200180831161089a57829003601f168201915b5050505050908060020154908060030160009054906101000a900460ff16905084565b600160028111156108e757fe5b6001600083815260200190815260200160002060030160009054906101000a900460ff16600281111561091657fe5b14610989576040517f08c379a000000000000000000000000000000000000000000000000000000000815260040180806020018281038252601d8152602001807f6974656d206973206675727468657220696e2074686520636861696e2000000081525060200191505060405180910390fd5b60026001600083815260200190815260200160002060030160006101000a81548160ff021916908360028111156109bc57fe5b02179055507fa4035636e99f06b7651a604c1019fa4e8779fe68ef27eeb74dff2de348f6199b816001600084815260200190815260200160002060030160009054906101000a900460ff166002811115610a1257fe5b6001600085815260200190815260200160002060000160009054906101000a900473ffffffffffffffffffffffffffffffffffffffff16604051808481526020018381526020018273ffffffffffffffffffffffffffffffffffffffff1673ffffffffffffffffffffffffffffffffffffffff168152602001935050505060405180910390a150565b6104bc80610b4e83390190565b828054600181600116156101000203166002900490600052602060002090601f016020900481019282601f10610ae957805160ff1916838001178555610b17565b82800160010185558215610b17579182015b82811115610b16578251825591602001919060010190610afb565b5b509050610b249190610b28565b5090565b610b4a91905b80821115610b46576000816000905550600101610b2e565b5090565b9056fe608060405234801561001057600080fd5b506040516104bc3803806104bc8339818101604052606081101561003357600080fd5b81019080805190602001909291908051906020019092919080519060200190929190505050816000819055508060018190555082600360006101000a81548173ffffffffffffffffffffffffffffffffffffffff021916908373ffffffffffffffffffffffffffffffffffffffff160217905550505050610403806100b96000396000f3fe6080604052600436106100385760003560e01c80632986c0e51461030e57806389794d0014610339578063fb01445d14610364576102ff565b366102ff576000600254146100b5576040517f08c379a00000000000000000000000000000000000000000000000000000000081526004018080602001828103825260158152602001807f4974656d206973207061696420616c726561647920000000000000000000000081525060200191505060405180910390fd5b346000541461012c576040517f08c379a000000000000000000000000000000000000000000000000000000000815260040180806020018281038252601b8152602001807f4f6e6c792066756c6c207061796d656e747320616c6c6f77656420000000000081525060200191505060405180910390fd5b346002600082825401925050819055506000600360009054906101000a900473ffffffffffffffffffffffffffffffffffffffff1673ffffffffffffffffffffffffffffffffffffffff1634600154604051602401808281526020019150506040516020818303038152906040527f800fb83f000000000000000000000000000000000000000000000000000000007bffffffffffffffffffffffffffffffffffffffffffffffffffffffff19166020820180517bffffffffffffffffffffffffffffffffffffffffffffffffffffffff83818316178352505050506040518082805190602001908083835b6020831061023b5780518252602082019150602081019050602083039250610218565b6001836020036101000a03801982511681845116808217855250505050505090500191505060006040518083038185875af1925050503d806000811461029d576040519150601f19603f3d011682016040523d82523d6000602084013e6102a2565b606091505b50509050806102fc576040517f08c379a000000000000000000000000000000000000000000000000000000000815260040180806020018281038252602c8152602001806103a2602c913960400191505060405180910390fd5b50005b34801561030b57600080fd5b50005b34801561031a57600080fd5b5061032361038f565b6040518082815260200191505060405180910390f35b34801561034557600080fd5b5061034e610395565b6040518082815260200191505060405180910390f35b34801561037057600080fd5b5061037961039b565b6040518082815260200191505060405180910390f35b60015481565b60025481565b6000548156fe746865207472616e73616374696f6e207761736e2774207375636365737366756c2c63616e63656c6c696e67a26469706673582212209d30714b9838716217edc886762f61e752d2490e4714b4e14aef27eab995a77f64736f6c63430006000033a2646970667358221220ef434d3597ef6ec406f4935402279a1ce2fc6dda9684428ee21069d4d0a11ea664736f6c63430006000033",
  "source": "pragma solidity ^0.6.0;\n\n//SPDX-License-Identifier: MIT\ncontract Ownable {\n    address payable _owner;\n\n    constructor() public {\n        _owner = msg.sender;\n    }\n\n    modifier onlyOwner() {\n        require(isOWner(), \"You are not the owner \");\n        _;\n    }\n\n    function isOWner() public view returns (bool) {\n        return (msg.sender == _owner);\n    }\n}\n\ncontract Item {\n    uint256 public PriceInWei;\n\n    uint256 public index;\n\n    uint256 public pricePaid;\n\n    ItemManager parentContract;\n\n    constructor(\n        ItemManager _parentContract,\n        uint256 _PriceInWei,\n        uint256 _index\n    ) public {\n        PriceInWei = _PriceInWei;\n        index = _index;\n        parentContract = _parentContract;\n    }\n\n    receive() external payable {\n        require(pricePaid == 0, \"Item is paid already \");\n        require(PriceInWei == msg.value, \"Only full payments allowed \");\n        pricePaid += msg.value;\n        //address(parentContract).transfer(msg.value);\n        (bool success, ) =\n            address(parentContract).call.value(msg.value)(\n                abi.encodeWithSignature(\"triggerPayment(uint256)\", index)\n            );\n        require(success, \"the transaction wasn't successful,cancelling\");\n    }\n\n    fallback() external {}\n}\n\ncontract ItemManager is Ownable {\n    enum Supplychain {Created, Paid, Delivered}\n\n    struct S_item {\n        Item _item;\n        string _identifier;\n        uint256 _itemPrice;\n        ItemManager.Supplychain _state;\n    }\n    mapping(uint256 => S_item) public items;\n    uint256 itemIndex;\n    event SupplyChainStep(\n        uint256 _itemIndex,\n        uint256 _step,\n        address _itemAddress\n    );\n\n    function createItem(string memory _identifier, uint256 _itemPrice)\n        public\n        onlyOwner\n    {\n        Item item = new Item(this, _itemPrice, itemIndex);\n        items[itemIndex]._item = item;\n        items[itemIndex]._identifier = _identifier;\n        items[itemIndex]._itemPrice = _itemPrice;\n        items[itemIndex]._state = Supplychain.Created;\n        emit SupplyChainStep(\n            itemIndex,\n            uint256(items[itemIndex]._state),\n            address(item)\n        );\n        itemIndex++;\n    }\n\n    function triggerPayment(uint256 _itemIndex) public payable {\n        require(\n            items[_itemIndex]._itemPrice == msg.value,\n            \"Only full payments accepted\"\n        );\n        require(\n            items[_itemIndex]._state == Supplychain.Created,\n            \"Item is further in the chain\"\n        );\n        items[_itemIndex]._state = Supplychain.Paid;\n\n        emit SupplyChainStep(\n            _itemIndex,\n            uint256(items[_itemIndex]._state),\n            address(items[_itemIndex]._item)\n        );\n    }\n\n    function triggerDelivery(uint256 _itemIndex) public {\n        require(\n            items[_itemIndex]._state == Supplychain.Paid,\n            \"item is further in the chain \"\n        );\n        items[_itemIndex]._state = Supplychain.Delivered;\n\n        emit SupplyChainStep(\n            _itemIndex,\n            uint256(items[_itemIndex]._state),\n            address(items[_itemIndex]._item)\n        );\n    }\n}\n",
  "sourcePath": "/home/muzammilazam/Desktop/suppychain/contracts/Supplychain.sol",
  "compiler": {
    "name": "solc",
    "version": "0.6.0+commit.26b70077.Emscripten.clang"
  },
  "schemaVersion": "3.4.0",
  "updatedAt": "2021-05-19T07:54:20.965Z",
  "networkType": "ethereum",
  "devdoc": {
    "methods": {}
  },
  "userdoc": {
    "methods": {}
  }
}