{
  "contractName": "Item",
  "abi": [
    {
      "inputs": [
        {
          "internalType": "contract ItemManager",
          "name": "_parentContract",
          "type": "address"
        },
        {
          "internalType": "uint256",
          "name": "_PriceInWei",
          "type": "uint256"
        },
        {
          "internalType": "uint256",
          "name": "_index",
          "type": "uint256"
        }
      ],
      "stateMutability": "nonpayable",
      "type": "constructor"
    },
    {
      "stateMutability": "nonpayable",
      "type": "fallback"
    },
    {
      "inputs": [],
      "name": "PriceInWei",
      "outputs": [
        {
          "internalType": "uint256",
          "name": "",
          "type": "uint256"
        }
      ],
      "stateMutability": "view",
      "type": "function"
    },
    {
      "inputs": [],
      "name": "index",
      "outputs": [
        {
          "internalType": "uint256",
          "name": "",
          "type": "uint256"
        }
      ],
      "stateMutability": "view",
      "type": "function"
    },
    {
      "inputs": [],
      "name": "pricePaid",
      "outputs": [
        {
          "internalType": "uint256",
          "name": "",
          "type": "uint256"
        }
      ],
      "stateMutability": "view",
      "type": "function"
    },
    {
      "stateMutability": "payable",
      "type": "receive"
    }
  ],
  "bytecode": "0x608060405234801561001057600080fd5b506040516104bc3803806104bc8339818101604052606081101561003357600080fd5b81019080805190602001909291908051906020019092919080519060200190929190505050816000819055508060018190555082600360006101000a81548173ffffffffffffffffffffffffffffffffffffffff021916908373ffffffffffffffffffffffffffffffffffffffff160217905550505050610403806100b96000396000f3fe6080604052600436106100385760003560e01c80632986c0e51461030e57806389794d0014610339578063fb01445d14610364576102ff565b366102ff576000600254146100b5576040517f08c379a00000000000000000000000000000000000000000000000000000000081526004018080602001828103825260158152602001807f4974656d206973207061696420616c726561647920000000000000000000000081525060200191505060405180910390fd5b346000541461012c576040517f08c379a000000000000000000000000000000000000000000000000000000000815260040180806020018281038252601b8152602001807f4f6e6c792066756c6c207061796d656e747320616c6c6f77656420000000000081525060200191505060405180910390fd5b346002600082825401925050819055506000600360009054906101000a900473ffffffffffffffffffffffffffffffffffffffff1673ffffffffffffffffffffffffffffffffffffffff1634600154604051602401808281526020019150506040516020818303038152906040527f800fb83f000000000000000000000000000000000000000000000000000000007bffffffffffffffffffffffffffffffffffffffffffffffffffffffff19166020820180517bffffffffffffffffffffffffffffffffffffffffffffffffffffffff83818316178352505050506040518082805190602001908083835b6020831061023b5780518252602082019150602081019050602083039250610218565b6001836020036101000a03801982511681845116808217855250505050505090500191505060006040518083038185875af1925050503d806000811461029d576040519150601f19603f3d011682016040523d82523d6000602084013e6102a2565b606091505b50509050806102fc576040517f08c379a000000000000000000000000000000000000000000000000000000000815260040180806020018281038252602c8152602001806103a2602c913960400191505060405180910390fd5b50005b34801561030b57600080fd5b50005b34801561031a57600080fd5b5061032361038f565b6040518082815260200191505060405180910390f35b34801561034557600080fd5b5061034e610395565b6040518082815260200191505060405180910390f35b34801561037057600080fd5b5061037961039b565b6040518082815260200191505060405180910390f35b60015481565b60025481565b6000548156fe746865207472616e73616374696f6e207761736e2774207375636365737366756c2c63616e63656c6c696e67a26469706673582212209d30714b9838716217edc886762f61e752d2490e4714b4e14aef27eab995a77f64736f6c63430006000033",
  "source": "pragma solidity ^0.6.0;\n\n//SPDX-License-Identifier: MIT\ncontract Ownable {\n    address payable _owner;\n\n    constructor() public {\n        _owner = msg.sender;\n    }\n\n    modifier onlyOwner() {\n        require(isOWner(), \"You are not the owner \");\n        _;\n    }\n\n    function isOWner() public view returns (bool) {\n        return (msg.sender == _owner);\n    }\n}\n\ncontract Item {\n    uint256 public PriceInWei;\n\n    uint256 public index;\n\n    uint256 public pricePaid;\n\n    ItemManager parentContract;\n\n    constructor(\n        ItemManager _parentContract,\n        uint256 _PriceInWei,\n        uint256 _index\n    ) public {\n        PriceInWei = _PriceInWei;\n        index = _index;\n        parentContract = _parentContract;\n    }\n\n    receive() external payable {\n        require(pricePaid == 0, \"Item is paid already \");\n        require(PriceInWei == msg.value, \"Only full payments allowed \");\n        pricePaid += msg.value;\n        //address(parentContract).transfer(msg.value);\n        (bool success, ) =\n            address(parentContract).call.value(msg.value)(\n                abi.encodeWithSignature(\"triggerPayment(uint256)\", index)\n            );\n        require(success, \"the transaction wasn't successful,cancelling\");\n    }\n\n    fallback() external {}\n}\n\ncontract ItemManager is Ownable {\n    enum Supplychain {Created, Paid, Delivered}\n\n    struct S_item {\n        Item _item;\n        string _identifier;\n        uint256 _itemPrice;\n        ItemManager.Supplychain _state;\n    }\n    mapping(uint256 => S_item) public items;\n    uint256 itemIndex;\n    event SupplyChainStep(\n        uint256 _itemIndex,\n        uint256 _step,\n        address _itemAddress\n    );\n\n    function createItem(string memory _identifier, uint256 _itemPrice)\n        public\n        onlyOwner\n    {\n        Item item = new Item(this, _itemPrice, itemIndex);\n        items[itemIndex]._item = item;\n        items[itemIndex]._identifier = _identifier;\n        items[itemIndex]._itemPrice = _itemPrice;\n        items[itemIndex]._state = Supplychain.Created;\n        emit SupplyChainStep(\n            itemIndex,\n            uint256(items[itemIndex]._state),\n            address(item)\n        );\n        itemIndex++;\n    }\n\n    function triggerPayment(uint256 _itemIndex) public payable {\n        require(\n            items[_itemIndex]._itemPrice == msg.value,\n            \"Only full payments accepted\"\n        );\n        require(\n            items[_itemIndex]._state == Supplychain.Created,\n            \"Item is further in the chain\"\n        );\n        items[_itemIndex]._state = Supplychain.Paid;\n\n        emit SupplyChainStep(\n            _itemIndex,\n            uint256(items[_itemIndex]._state),\n            address(items[_itemIndex]._item)\n        );\n    }\n\n    function triggerDelivery(uint256 _itemIndex) public {\n        require(\n            items[_itemIndex]._state == Supplychain.Paid,\n            \"item is further in the chain \"\n        );\n        items[_itemIndex]._state = Supplychain.Delivered;\n\n        emit SupplyChainStep(\n            _itemIndex,\n            uint256(items[_itemIndex]._state),\n            address(items[_itemIndex]._item)\n        );\n    }\n}\n",
  "sourcePath": "/home/muzammilazam/Desktop/suppychain/contracts/Supplychain.sol",
  "compiler": {
    "name": "solc",
    "version": "0.6.0+commit.26b70077.Emscripten.clang"
  },
  "schemaVersion": "3.4.0",
  "updatedAt": "2021-05-19T07:45:48.757Z",
  "devdoc": {
    "methods": {}
  },
  "userdoc": {
    "methods": {}
  }
}